{
  "contractName": "Election",
  "abi": [
    {
      "inputs": [],
      "stateMutability": "nonpayable",
      "type": "constructor"
    },
    {
      "inputs": [
        {
          "internalType": "string",
          "name": "",
          "type": "string"
        }
      ],
      "name": "contestants",
      "outputs": [
        {
          "internalType": "uint256",
          "name": "id",
          "type": "uint256"
        },
        {
          "internalType": "string",
          "name": "name",
          "type": "string"
        },
        {
          "internalType": "uint256",
          "name": "voteCount",
          "type": "uint256"
        },
        {
          "internalType": "string",
          "name": "uniqueId",
          "type": "string"
        },
        {
          "internalType": "uint256",
          "name": "age",
          "type": "uint256"
        }
      ],
      "stateMutability": "view",
      "type": "function",
      "constant": true
    },
    {
      "inputs": [],
      "name": "contestantsCount",
      "outputs": [
        {
          "internalType": "uint256",
          "name": "",
          "type": "uint256"
        }
      ],
      "stateMutability": "view",
      "type": "function",
      "constant": true
    },
    {
      "inputs": [],
      "name": "state",
      "outputs": [
        {
          "internalType": "enum Election.PHASE",
          "name": "",
          "type": "uint8"
        }
      ],
      "stateMutability": "view",
      "type": "function",
      "constant": true
    },
    {
      "inputs": [
        {
          "internalType": "address",
          "name": "",
          "type": "address"
        }
      ],
      "name": "voters",
      "outputs": [
        {
          "internalType": "bool",
          "name": "hasVoted",
          "type": "bool"
        },
        {
          "internalType": "string",
          "name": "vote",
          "type": "string"
        },
        {
          "internalType": "bool",
          "name": "isRegistered",
          "type": "bool"
        }
      ],
      "stateMutability": "view",
      "type": "function",
      "constant": true
    },
    {
      "inputs": [
        {
          "internalType": "enum Election.PHASE",
          "name": "x",
          "type": "uint8"
        }
      ],
      "name": "changeState",
      "outputs": [],
      "stateMutability": "nonpayable",
      "type": "function"
    },
    {
      "inputs": [
        {
          "internalType": "string",
          "name": "_name",
          "type": "string"
        },
        {
          "internalType": "uint256",
          "name": "_age",
          "type": "uint256"
        },
        {
          "internalType": "string",
          "name": "_uniqueId",
          "type": "string"
        }
      ],
      "name": "addContestant",
      "outputs": [],
      "stateMutability": "nonpayable",
      "type": "function"
    },
    {
      "inputs": [
        {
          "internalType": "address",
          "name": "user",
          "type": "address"
        }
      ],
      "name": "voterRegisteration",
      "outputs": [],
      "stateMutability": "nonpayable",
      "type": "function"
    },
    {
      "inputs": [
        {
          "internalType": "string",
          "name": "_contestantId",
          "type": "string"
        }
      ],
      "name": "vote",
      "outputs": [],
      "stateMutability": "nonpayable",
      "type": "function"
    }
  ],
  "bytecode": "0x608060405234801561001057600080fd5b50336000806101000a81548173ffffffffffffffffffffffffffffffffffffffff021916908373ffffffffffffffffffffffffffffffffffffffff1602179055506000600460006101000a81548160ff0219169083600281111561007757610076610081565b5b02179055506100b0565b7f4e487b7100000000000000000000000000000000000000000000000000000000600052602160045260246000fd5b611340806100bf6000396000f3fe608060405234801561001057600080fd5b50600436106100885760003560e01c8063b7b91b0a1161005b578063b7b91b0a1461012b578063c19d93fb14610147578063ec63d1c814610165578063fc36e15b1461018357610088565b806316418efe1461008d578063268f1153146100c1578063698ceb5f146100dd578063a3ec138d146100f9575b600080fd5b6100a760048036038101906100a29190610aec565b61019f565b6040516100b8959493929190610bcd565b60405180910390f35b6100db60048036038101906100d69190610c53565b6102fb565b005b6100f760048036038101906100f29190610cde565b6103bf565b005b610113600480360381019061010e9190610cde565b610497565b60405161012293929190610d26565b60405180910390f35b61014560048036038101906101409190610d90565b610563565b005b61014f610727565b60405161015c9190610e92565b60405180910390f35b61016d61073a565b60405161017a9190610ead565b60405180910390f35b61019d60048036038101906101989190610aec565b610740565b005b6001818051602081018201805184825260208301602085012081835280955050505050506000915090508060000154908060010180546101de90610ef7565b80601f016020809104026020016040519081016040528092919081815260200182805461020a90610ef7565b80156102575780601f1061022c57610100808354040283529160200191610257565b820191906000526020600020905b81548152906001019060200180831161023a57829003601f168201915b50505050509080600201549080600301805461027290610ef7565b80601f016020809104026020016040519081016040528092919081815260200182805461029e90610ef7565b80156102eb5780601f106102c0576101008083540402835291602001916102eb565b820191906000526020600020905b8154815290600101906020018083116102ce57829003601f168201915b5050505050908060040154905085565b60008054906101000a900473ffffffffffffffffffffffffffffffffffffffff1673ffffffffffffffffffffffffffffffffffffffff163373ffffffffffffffffffffffffffffffffffffffff161461035357600080fd5b600460009054906101000a900460ff16600281111561037557610374610e1b565b5b81600281111561038857610387610e1b565b5b1161039257600080fd5b80600460006101000a81548160ff021916908360028111156103b7576103b6610e1b565b5b021790555050565b60008060028111156103d4576103d3610e1b565b5b600460009054906101000a900460ff1660028111156103f6576103f5610e1b565b5b1461040057600080fd5b8173ffffffffffffffffffffffffffffffffffffffff163373ffffffffffffffffffffffffffffffffffffffff161461043857600080fd5b6001600260008473ffffffffffffffffffffffffffffffffffffffff1673ffffffffffffffffffffffffffffffffffffffff16815260200190815260200160002060020160006101000a81548160ff0219169083151502179055505050565b60026020528060005260406000206000915090508060000160009054906101000a900460ff16908060010180546104cd90610ef7565b80601f01602080910402602001604051908101604052809291908181526020018280546104f990610ef7565b80156105465780601f1061051b57610100808354040283529160200191610546565b820191906000526020600020905b81548152906001019060200180831161052957829003601f168201915b5050505050908060020160009054906101000a900460ff16905083565b60008054906101000a900473ffffffffffffffffffffffffffffffffffffffff1673ffffffffffffffffffffffffffffffffffffffff163373ffffffffffffffffffffffffffffffffffffffff16146105bb57600080fd5b60008060028111156105d0576105cf610e1b565b5b600460009054906101000a900460ff1660028111156105f2576105f1610e1b565b5b146105fc57600080fd5b8160405160200161060d9190610f64565b604051602081830303815290604052805190602001206001836040516106339190610f64565b90815260200160405180910390206003016040516020016106549190611013565b604051602081830303815290604052805190602001200361067457600080fd5b6003600081548092919061068790611059565b91905055506040518060a00160405280600354815260200185815260200160008152602001838152602001848152506001836040516106c69190610f64565b90815260200160405180910390206000820151816000015560208201518160010190816106f39190611238565b506040820151816002015560608201518160030190816107139190611238565b506080820151816004015590505050505050565b600460009054906101000a900460ff1681565b60035481565b600180600281111561075557610754610e1b565b5b600460009054906101000a900460ff16600281111561077757610776610e1b565b5b1461078157600080fd5b600260003373ffffffffffffffffffffffffffffffffffffffff1673ffffffffffffffffffffffffffffffffffffffff16815260200190815260200160002060020160009054906101000a900460ff166107da57600080fd5b600260003373ffffffffffffffffffffffffffffffffffffffff1673ffffffffffffffffffffffffffffffffffffffff16815260200190815260200160002060000160009054906101000a900460ff161561083457600080fd5b816040516020016108459190610f64565b6040516020818303038152906040528051906020012060018360405161086b9190610f64565b908152602001604051809103902060030160405160200161088c9190611013565b60405160208183030381529060405280519060200120146108ac57600080fd5b6001826040516108bc9190610f64565b908152602001604051809103902060020160008154809291906108de90611059565b91905055506001600260003373ffffffffffffffffffffffffffffffffffffffff1673ffffffffffffffffffffffffffffffffffffffff16815260200190815260200160002060000160006101000a81548160ff02191690831515021790555081600260003373ffffffffffffffffffffffffffffffffffffffff1673ffffffffffffffffffffffffffffffffffffffff168152602001908152602001600020600101908161098d9190611238565b505050565b6000604051905090565b600080fd5b600080fd5b600080fd5b600080fd5b6000601f19601f8301169050919050565b7f4e487b7100000000000000000000000000000000000000000000000000000000600052604160045260246000fd5b6109f9826109b0565b810181811067ffffffffffffffff82111715610a1857610a176109c1565b5b80604052505050565b6000610a2b610992565b9050610a3782826109f0565b919050565b600067ffffffffffffffff821115610a5757610a566109c1565b5b610a60826109b0565b9050602081019050919050565b82818337600083830152505050565b6000610a8f610a8a84610a3c565b610a21565b905082815260208101848484011115610aab57610aaa6109ab565b5b610ab6848285610a6d565b509392505050565b600082601f830112610ad357610ad26109a6565b5b8135610ae3848260208601610a7c565b91505092915050565b600060208284031215610b0257610b0161099c565b5b600082013567ffffffffffffffff811115610b2057610b1f6109a1565b5b610b2c84828501610abe565b91505092915050565b6000819050919050565b610b4881610b35565b82525050565b600081519050919050565b600082825260208201905092915050565b60005b83811015610b88578082015181840152602081019050610b6d565b60008484015250505050565b6000610b9f82610b4e565b610ba98185610b59565b9350610bb9818560208601610b6a565b610bc2816109b0565b840191505092915050565b600060a082019050610be26000830188610b3f565b8181036020830152610bf48187610b94565b9050610c036040830186610b3f565b8181036060830152610c158185610b94565b9050610c246080830184610b3f565b9695505050505050565b60038110610c3b57600080fd5b50565b600081359050610c4d81610c2e565b92915050565b600060208284031215610c6957610c6861099c565b5b6000610c7784828501610c3e565b91505092915050565b600073ffffffffffffffffffffffffffffffffffffffff82169050919050565b6000610cab82610c80565b9050919050565b610cbb81610ca0565b8114610cc657600080fd5b50565b600081359050610cd881610cb2565b92915050565b600060208284031215610cf457610cf361099c565b5b6000610d0284828501610cc9565b91505092915050565b60008115159050919050565b610d2081610d0b565b82525050565b6000606082019050610d3b6000830186610d17565b8181036020830152610d4d8185610b94565b9050610d5c6040830184610d17565b949350505050565b610d6d81610b35565b8114610d7857600080fd5b50565b600081359050610d8a81610d64565b92915050565b600080600060608486031215610da957610da861099c565b5b600084013567ffffffffffffffff811115610dc757610dc66109a1565b5b610dd386828701610abe565b9350506020610de486828701610d7b565b925050604084013567ffffffffffffffff811115610e0557610e046109a1565b5b610e1186828701610abe565b9150509250925092565b7f4e487b7100000000000000000000000000000000000000000000000000000000600052602160045260246000fd5b60038110610e5b57610e5a610e1b565b5b50565b6000819050610e6c82610e4a565b919050565b6000610e7c82610e5e565b9050919050565b610e8c81610e71565b82525050565b6000602082019050610ea76000830184610e83565b92915050565b6000602082019050610ec26000830184610b3f565b92915050565b7f4e487b7100000000000000000000000000000000000000000000000000000000600052602260045260246000fd5b60006002820490506001821680610f0f57607f821691505b602082108103610f2257610f21610ec8565b5b50919050565b600081905092915050565b6000610f3e82610b4e565b610f488185610f28565b9350610f58818560208601610b6a565b80840191505092915050565b6000610f708284610f33565b915081905092915050565b60008190508160005260206000209050919050565b60008154610f9d81610ef7565b610fa78186610f28565b94506001821660008114610fc25760018114610fd75761100a565b60ff198316865281151582028601935061100a565b610fe085610f7b565b60005b8381101561100257815481890152600182019150602081019050610fe3565b838801955050505b50505092915050565b600061101f8284610f90565b915081905092915050565b7f4e487b7100000000000000000000000000000000000000000000000000000000600052601160045260246000fd5b600061106482610b35565b91507fffffffffffffffffffffffffffffffffffffffffffffffffffffffffffffffff82036110965761109561102a565b5b600182019050919050565b60006020601f8301049050919050565b600082821b905092915050565b6000600883026110ee7fffffffffffffffffffffffffffffffffffffffffffffffffffffffffffffffff826110b1565b6110f886836110b1565b95508019841693508086168417925050509392505050565b6000819050919050565b600061113561113061112b84610b35565b611110565b610b35565b9050919050565b6000819050919050565b61114f8361111a565b61116361115b8261113c565b8484546110be565b825550505050565b600090565b61117861116b565b611183818484611146565b505050565b5b818110156111a75761119c600082611170565b600181019050611189565b5050565b601f8211156111ec576111bd81610f7b565b6111c6846110a1565b810160208510156111d5578190505b6111e96111e1856110a1565b830182611188565b50505b505050565b600082821c905092915050565b600061120f600019846008026111f1565b1980831691505092915050565b600061122883836111fe565b9150826002028217905092915050565b61124182610b4e565b67ffffffffffffffff81111561125a576112596109c1565b5b6112648254610ef7565b61126f8282856111ab565b600060209050601f8311600181146112a25760008415611290578287015190505b61129a858261121c565b865550611302565b601f1984166112b086610f7b565b60005b828110156112d8578489015182556001820191506020850194506020810190506112b3565b868310156112f557848901516112f1601f8916826111fe565b8355505b6001600288020188555050505b50505050505056fea2646970667358221220413167d84065c91380bd171533b589f9f6feab0160e052abc7c59c227eb24fc564736f6c63430008130033",
  "immutableReferences": {},
  "source": "// SPDX-License-Identifier: GPL-3.0\r\n\r\npragma solidity >=0.8.2 <0.9.0;\r\n\r\ncontract Election{\r\n\t\r\n\tstruct Contestant{\r\n\t\tuint id;\r\n\t\tstring name;\r\n\t\tuint voteCount;\r\n        string uniqueId;\r\n\t\tuint age;\r\n\t}\r\n\r\n\tstruct Voter{\r\n\t\tbool hasVoted;\r\n\t\tstring vote;\r\n\t\tbool isRegistered;\r\n\t}\r\n\r\n\taddress admin;\r\n\tmapping(string => Contestant) public contestants; \r\n   // mapping(address => bool) public voters;\r\n    mapping(address => Voter) public voters;\r\n\tuint public contestantsCount;\r\n\t// uint public counter;\r\n\tenum PHASE{reg, voting , done}\r\n\tPHASE public state;\r\n\r\n\tmodifier onlyAdmin(){\r\n\t\trequire(msg.sender==admin);\r\n\t\t_;\r\n\t}\r\n\t\r\n\tmodifier validState(PHASE x){\r\n\t    require(state==x);\r\n\t    _;\r\n\t}\r\n\r\n\tconstructor() {\r\n\t\tadmin=msg.sender;\r\n        state=PHASE.reg;\r\n\t\t// counter = 0;\r\n\r\n\t}\r\n\r\n    function changeState(PHASE x) onlyAdmin public{\r\n\t\trequire(x > state);\r\n        state = x;\r\n    }\r\n\r\n\tfunction addContestant(string memory _name , uint _age , string memory _uniqueId) public onlyAdmin validState(PHASE.reg){\r\n\t\trequire(keccak256(abi.encodePacked(contestants[_uniqueId].uniqueId)) != keccak256(abi.encodePacked(_uniqueId)));\r\n        contestantsCount++;\r\n\t\tcontestants[_uniqueId]=Contestant(contestantsCount,_name,0 , _uniqueId ,_age);\r\n\t}\r\n\r\n\tfunction voterRegisteration(address user) public validState(PHASE.reg){\r\n        require(msg.sender == user);\r\n\t\tvoters[user].isRegistered=true;\r\n\t}\r\n\r\n\tfunction vote(string memory _contestantId) public validState(PHASE.voting){\r\n        \r\n\t\trequire(voters[msg.sender].isRegistered);\r\n\t\trequire(!voters[msg.sender].hasVoted);\r\n        require(keccak256(abi.encodePacked(contestants[_contestantId].uniqueId)) == keccak256(abi.encodePacked(_contestantId)));\r\n\t\tcontestants[_contestantId].voteCount++;\r\n\t\tvoters[msg.sender].hasVoted=true;\r\n\t\tvoters[msg.sender].vote=_contestantId;\r\n\t}\r\n}",
  "sourcePath": "D:\\College\\SEMESTER 8\\E-Voting-WebApp\\Blockchain\\contracts\\Election.sol",
  "compiler": {
    "name": "solc",
    "version": "0.8.19+commit.7dd6d404.Emscripten.clang"
  },
  "schemaVersion": "3.4.13",
  "updatedAt": "2023-05-08T09:19:47.384Z",
  "networkType": "ethereum",
  "devdoc": {
    "kind": "dev",
    "methods": {},
    "version": 1
  },
  "userdoc": {
    "kind": "user",
    "methods": {},
    "version": 1
  }
}