{
  "contractName": "Election",
  "abi": [
    {
      "inputs": [
        {
          "internalType": "uint256",
          "name": "_maxVoteCount",
          "type": "uint256"
        }
      ],
      "stateMutability": "nonpayable",
      "type": "constructor"
    },
    {
      "inputs": [
        {
          "internalType": "string",
          "name": "",
          "type": "string"
        }
      ],
      "name": "contestants",
      "outputs": [
        {
          "internalType": "uint256",
          "name": "id",
          "type": "uint256"
        },
        {
          "internalType": "string",
          "name": "name",
          "type": "string"
        },
        {
          "internalType": "uint256",
          "name": "voteCount",
          "type": "uint256"
        },
        {
          "internalType": "string",
          "name": "uniqueId",
          "type": "string"
        },
        {
          "internalType": "uint256",
          "name": "age",
          "type": "uint256"
        }
      ],
      "stateMutability": "view",
      "type": "function"
    },
    {
      "inputs": [],
      "name": "contestantsCount",
      "outputs": [
        {
          "internalType": "uint256",
          "name": "",
          "type": "uint256"
        }
      ],
      "stateMutability": "view",
      "type": "function"
    },
    {
      "inputs": [],
      "name": "maxVoteCount",
      "outputs": [
        {
          "internalType": "uint256",
          "name": "",
          "type": "uint256"
        }
      ],
      "stateMutability": "view",
      "type": "function"
    },
    {
      "inputs": [],
      "name": "state",
      "outputs": [
        {
          "internalType": "enum Election.PHASE",
          "name": "",
          "type": "uint8"
        }
      ],
      "stateMutability": "view",
      "type": "function"
    },
    {
      "inputs": [
        {
          "internalType": "address",
          "name": "",
          "type": "address"
        }
      ],
      "name": "voters",
      "outputs": [
        {
          "internalType": "bool",
          "name": "isRegistered",
          "type": "bool"
        },
        {
          "internalType": "bool",
          "name": "hasVoted",
          "type": "bool"
        },
        {
          "internalType": "uint256",
          "name": "votesRemaining",
          "type": "uint256"
        }
      ],
      "stateMutability": "view",
      "type": "function"
    },
    {
      "inputs": [
        {
          "internalType": "enum Election.PHASE",
          "name": "x",
          "type": "uint8"
        }
      ],
      "name": "changeState",
      "outputs": [],
      "stateMutability": "nonpayable",
      "type": "function"
    },
    {
      "inputs": [
        {
          "internalType": "string",
          "name": "_name",
          "type": "string"
        },
        {
          "internalType": "uint256",
          "name": "_age",
          "type": "uint256"
        },
        {
          "internalType": "string",
          "name": "_uniqueId",
          "type": "string"
        }
      ],
      "name": "addContestant",
      "outputs": [],
      "stateMutability": "nonpayable",
      "type": "function"
    },
    {
      "inputs": [
        {
          "internalType": "address",
          "name": "user",
          "type": "address"
        }
      ],
      "name": "voterRegisteration",
      "outputs": [],
      "stateMutability": "nonpayable",
      "type": "function"
    },
    {
      "inputs": [
        {
          "internalType": "string",
          "name": "_contestantId",
          "type": "string"
        }
      ],
      "name": "vote",
      "outputs": [],
      "stateMutability": "nonpayable",
      "type": "function"
    },
    {
      "inputs": [],
      "name": "destruct",
      "outputs": [],
      "stateMutability": "nonpayable",
      "type": "function"
    }
  ],
  "bytecode": "0x60806040523480156200001157600080fd5b506040516200168e3803806200168e8339818101604052810190620000379190620000f3565b336000806101000a81548173ffffffffffffffffffffffffffffffffffffffff021916908373ffffffffffffffffffffffffffffffffffffffff1602179055506000600560006101000a81548160ff02191690836002811115620000a0576200009f62000125565b5b0217905550806004819055505062000154565b600080fd5b6000819050919050565b620000cd81620000b8565b8114620000d957600080fd5b50565b600081519050620000ed81620000c2565b92915050565b6000602082840312156200010c576200010b620000b3565b5b60006200011c84828501620000dc565b91505092915050565b7f4e487b7100000000000000000000000000000000000000000000000000000000600052602160045260246000fd5b61152a80620001646000396000f3fe608060405234801561001057600080fd5b506004361061009e5760003560e01c8063a3ec138d11610066578063a3ec138d14610137578063b7b91b0a14610169578063c19d93fb14610185578063ec63d1c8146101a3578063fc36e15b146101c15761009e565b806316418efe146100a3578063268f1153146100d75780632b68b9c6146100f3578063698ceb5f146100fd5780639f62568d14610119575b600080fd5b6100bd60048036038101906100b89190610cb4565b6101dd565b6040516100ce959493929190610d95565b60405180910390f35b6100f160048036038101906100ec9190610e1b565b610339565b005b6100fb6103fd565b005b61011760048036038101906101129190610ea6565b6104cb565b005b61012161064c565b60405161012e9190610ed3565b60405180910390f35b610151600480360381019061014c9190610ea6565b610652565b60405161016093929190610f09565b60405180910390f35b610183600480360381019061017e9190610f6c565b610696565b005b61018d61085a565b60405161019a919061106e565b60405180910390f35b6101ab61086d565b6040516101b89190610ed3565b60405180910390f35b6101db60048036038101906101d69190610cb4565b610873565b005b60018180516020810182018051848252602083016020850120818352809550505050505060009150905080600001549080600101805461021c906110b8565b80601f0160208091040260200160405190810160405280929190818152602001828054610248906110b8565b80156102955780601f1061026a57610100808354040283529160200191610295565b820191906000526020600020905b81548152906001019060200180831161027857829003601f168201915b5050505050908060020154908060030180546102b0906110b8565b80601f01602080910402602001604051908101604052809291908181526020018280546102dc906110b8565b80156103295780601f106102fe57610100808354040283529160200191610329565b820191906000526020600020905b81548152906001019060200180831161030c57829003601f168201915b5050505050908060040154905085565b60008054906101000a900473ffffffffffffffffffffffffffffffffffffffff1673ffffffffffffffffffffffffffffffffffffffff163373ffffffffffffffffffffffffffffffffffffffff161461039157600080fd5b600560009054906101000a900460ff1660028111156103b3576103b2610ff7565b5b8160028111156103c6576103c5610ff7565b5b116103d057600080fd5b80600560006101000a81548160ff021916908360028111156103f5576103f4610ff7565b5b021790555050565b60008054906101000a900473ffffffffffffffffffffffffffffffffffffffff1673ffffffffffffffffffffffffffffffffffffffff163373ffffffffffffffffffffffffffffffffffffffff161461045557600080fd5b60008054906101000a900473ffffffffffffffffffffffffffffffffffffffff1673ffffffffffffffffffffffffffffffffffffffff163373ffffffffffffffffffffffffffffffffffffffff16146104ad57600080fd5b60003390508073ffffffffffffffffffffffffffffffffffffffff16ff5b60008060028111156104e0576104df610ff7565b5b600560009054906101000a900460ff16600281111561050257610501610ff7565b5b1461050c57600080fd5b8173ffffffffffffffffffffffffffffffffffffffff163373ffffffffffffffffffffffffffffffffffffffff161461054457600080fd5b60001515600260008473ffffffffffffffffffffffffffffffffffffffff1673ffffffffffffffffffffffffffffffffffffffff16815260200190815260200160002060000160009054906101000a900460ff161515146105a457600080fd5b6001600260008473ffffffffffffffffffffffffffffffffffffffff1673ffffffffffffffffffffffffffffffffffffffff16815260200190815260200160002060000160006101000a81548160ff021916908315150217905550600454600260008473ffffffffffffffffffffffffffffffffffffffff1673ffffffffffffffffffffffffffffffffffffffff168152602001908152602001600020600101819055505050565b60045481565b60026020528060005260406000206000915090508060000160009054906101000a900460ff16908060000160019054906101000a900460ff16908060010154905083565b60008054906101000a900473ffffffffffffffffffffffffffffffffffffffff1673ffffffffffffffffffffffffffffffffffffffff163373ffffffffffffffffffffffffffffffffffffffff16146106ee57600080fd5b600080600281111561070357610702610ff7565b5b600560009054906101000a900460ff16600281111561072557610724610ff7565b5b1461072f57600080fd5b816040516020016107409190611125565b604051602081830303815290604052805190602001206001836040516107669190611125565b908152602001604051809103902060030160405160200161078791906111d4565b60405160208183030381529060405280519060200120036107a757600080fd5b600360008154809291906107ba9061121a565b91905055506040518060a00160405280600354815260200185815260200160008152602001838152602001848152506001836040516107f99190611125565b908152602001604051809103902060008201518160000155602082015181600101908161082691906113f9565b5060408201518160020155606082015181600301908161084691906113f9565b506080820151816004015590505050505050565b600560009054906101000a900460ff1681565b60035481565b600180600281111561088857610887610ff7565b5b600560009054906101000a900460ff1660028111156108aa576108a9610ff7565b5b146108b457600080fd5b600260003373ffffffffffffffffffffffffffffffffffffffff1673ffffffffffffffffffffffffffffffffffffffff16815260200190815260200160002060000160009054906101000a900460ff1661090d57600080fd5b6000600260003373ffffffffffffffffffffffffffffffffffffffff1673ffffffffffffffffffffffffffffffffffffffff168152602001908152602001600020600101541161095c57600080fd5b600260003373ffffffffffffffffffffffffffffffffffffffff1673ffffffffffffffffffffffffffffffffffffffff168152602001908152602001600020600201826040516109ac9190611125565b908152602001604051809103902060009054906101000a900460ff16156109d257600080fd5b60006001836040516109e49190611125565b908152602001604051809103902090506000816001018054610a05906110b8565b905011610a1157600080fd5b806002016000815480929190610a269061121a565b91905055506001600260003373ffffffffffffffffffffffffffffffffffffffff1673ffffffffffffffffffffffffffffffffffffffff16815260200190815260200160002060000160016101000a81548160ff021916908315150217905550600260003373ffffffffffffffffffffffffffffffffffffffff1673ffffffffffffffffffffffffffffffffffffffff1681526020019081526020016000206001016000815480929190610ad9906114cb565b91905055506001600260003373ffffffffffffffffffffffffffffffffffffffff1673ffffffffffffffffffffffffffffffffffffffff16815260200190815260200160002060020184604051610b309190611125565b908152602001604051809103902060006101000a81548160ff021916908315150217905550505050565b6000604051905090565b600080fd5b600080fd5b600080fd5b600080fd5b6000601f19601f8301169050919050565b7f4e487b7100000000000000000000000000000000000000000000000000000000600052604160045260246000fd5b610bc182610b78565b810181811067ffffffffffffffff82111715610be057610bdf610b89565b5b80604052505050565b6000610bf3610b5a565b9050610bff8282610bb8565b919050565b600067ffffffffffffffff821115610c1f57610c1e610b89565b5b610c2882610b78565b9050602081019050919050565b82818337600083830152505050565b6000610c57610c5284610c04565b610be9565b905082815260208101848484011115610c7357610c72610b73565b5b610c7e848285610c35565b509392505050565b600082601f830112610c9b57610c9a610b6e565b5b8135610cab848260208601610c44565b91505092915050565b600060208284031215610cca57610cc9610b64565b5b600082013567ffffffffffffffff811115610ce857610ce7610b69565b5b610cf484828501610c86565b91505092915050565b6000819050919050565b610d1081610cfd565b82525050565b600081519050919050565b600082825260208201905092915050565b60005b83811015610d50578082015181840152602081019050610d35565b60008484015250505050565b6000610d6782610d16565b610d718185610d21565b9350610d81818560208601610d32565b610d8a81610b78565b840191505092915050565b600060a082019050610daa6000830188610d07565b8181036020830152610dbc8187610d5c565b9050610dcb6040830186610d07565b8181036060830152610ddd8185610d5c565b9050610dec6080830184610d07565b9695505050505050565b60038110610e0357600080fd5b50565b600081359050610e1581610df6565b92915050565b600060208284031215610e3157610e30610b64565b5b6000610e3f84828501610e06565b91505092915050565b600073ffffffffffffffffffffffffffffffffffffffff82169050919050565b6000610e7382610e48565b9050919050565b610e8381610e68565b8114610e8e57600080fd5b50565b600081359050610ea081610e7a565b92915050565b600060208284031215610ebc57610ebb610b64565b5b6000610eca84828501610e91565b91505092915050565b6000602082019050610ee86000830184610d07565b92915050565b60008115159050919050565b610f0381610eee565b82525050565b6000606082019050610f1e6000830186610efa565b610f2b6020830185610efa565b610f386040830184610d07565b949350505050565b610f4981610cfd565b8114610f5457600080fd5b50565b600081359050610f6681610f40565b92915050565b600080600060608486031215610f8557610f84610b64565b5b600084013567ffffffffffffffff811115610fa357610fa2610b69565b5b610faf86828701610c86565b9350506020610fc086828701610f57565b925050604084013567ffffffffffffffff811115610fe157610fe0610b69565b5b610fed86828701610c86565b9150509250925092565b7f4e487b7100000000000000000000000000000000000000000000000000000000600052602160045260246000fd5b6003811061103757611036610ff7565b5b50565b600081905061104882611026565b919050565b60006110588261103a565b9050919050565b6110688161104d565b82525050565b6000602082019050611083600083018461105f565b92915050565b7f4e487b7100000000000000000000000000000000000000000000000000000000600052602260045260246000fd5b600060028204905060018216806110d057607f821691505b6020821081036110e3576110e2611089565b5b50919050565b600081905092915050565b60006110ff82610d16565b61110981856110e9565b9350611119818560208601610d32565b80840191505092915050565b600061113182846110f4565b915081905092915050565b60008190508160005260206000209050919050565b6000815461115e816110b8565b61116881866110e9565b945060018216600081146111835760018114611198576111cb565b60ff19831686528115158202860193506111cb565b6111a18561113c565b60005b838110156111c3578154818901526001820191506020810190506111a4565b838801955050505b50505092915050565b60006111e08284611151565b915081905092915050565b7f4e487b7100000000000000000000000000000000000000000000000000000000600052601160045260246000fd5b600061122582610cfd565b91507fffffffffffffffffffffffffffffffffffffffffffffffffffffffffffffffff8203611257576112566111eb565b5b600182019050919050565b60006020601f8301049050919050565b600082821b905092915050565b6000600883026112af7fffffffffffffffffffffffffffffffffffffffffffffffffffffffffffffffff82611272565b6112b98683611272565b95508019841693508086168417925050509392505050565b6000819050919050565b60006112f66112f16112ec84610cfd565b6112d1565b610cfd565b9050919050565b6000819050919050565b611310836112db565b61132461131c826112fd565b84845461127f565b825550505050565b600090565b61133961132c565b611344818484611307565b505050565b5b818110156113685761135d600082611331565b60018101905061134a565b5050565b601f8211156113ad5761137e8161113c565b61138784611262565b81016020851015611396578190505b6113aa6113a285611262565b830182611349565b50505b505050565b600082821c905092915050565b60006113d0600019846008026113b2565b1980831691505092915050565b60006113e983836113bf565b9150826002028217905092915050565b61140282610d16565b67ffffffffffffffff81111561141b5761141a610b89565b5b61142582546110b8565b61143082828561136c565b600060209050601f8311600181146114635760008415611451578287015190505b61145b85826113dd565b8655506114c3565b601f1984166114718661113c565b60005b8281101561149957848901518255600182019150602085019450602081019050611474565b868310156114b657848901516114b2601f8916826113bf565b8355505b6001600288020188555050505b505050505050565b60006114d682610cfd565b9150600082036114e9576114e86111eb565b5b60018203905091905056fea2646970667358221220b28bb2e80dc77c21cdaf6f660edf68f4e87846baecc3bdf74fbf2e99788264c464736f6c63430008130033",
  "immutableReferences": {},
  "source": "// SPDX-License-Identifier: GPL-3.0\r\n\r\npragma solidity >=0.5.2 <0.9.0;\r\n\r\ncontract Election{\r\n\t\r\n\tstruct Contestant{\r\n\t\tuint id;\r\n\t\tstring name;\r\n\t\tuint voteCount;\r\n        string uniqueId;\r\n\t\tuint age;\r\n\t}\r\n\r\n\tstruct Voter{\r\n\t\tbool isRegistered;\r\n\t\tbool hasVoted;\r\n\t\tuint votesRemaining;\r\n    \tmapping(string => bool) votedFor;\r\n\t}\r\n\r\n\taddress admin;\r\n\tmapping(string => Contestant) public contestants; \r\n    mapping(address => Voter) public voters;\r\n\tuint public contestantsCount;\r\n\tuint public maxVoteCount;\r\n\tenum PHASE{reg, voting , done}\r\n\tPHASE public state;\r\n\r\n\tmodifier onlyAdmin(){\r\n\t\trequire(msg.sender==admin);\r\n\t\t_;\r\n\t}\r\n\t\r\n\tmodifier validState(PHASE x){\r\n\t    require(state==x);\r\n\t    _;\r\n\t}\r\n\r\n\tconstructor(uint _maxVoteCount) {\r\n\t\tadmin=msg.sender;\r\n        state=PHASE.reg;\r\n\t\tmaxVoteCount = _maxVoteCount;\r\n\t}\r\n\r\n    function changeState(PHASE x) onlyAdmin public{\r\n\t\trequire(x > state);\r\n        state = x;\r\n    }\r\n\r\n\tfunction addContestant(string memory _name , uint _age , string memory _uniqueId) public onlyAdmin validState(PHASE.reg){\r\n\t\trequire(keccak256(abi.encodePacked(contestants[_uniqueId].uniqueId)) != keccak256(abi.encodePacked(_uniqueId)));\r\n        contestantsCount++;\r\n\t\tcontestants[_uniqueId]=Contestant(contestantsCount,_name,0 , _uniqueId ,_age);\r\n\t}\r\n\r\n\tfunction voterRegisteration(address user) public validState(PHASE.reg){\r\n        require(msg.sender == user);\r\n\t\trequire(voters[user].isRegistered == false);\r\n\t\tvoters[user].isRegistered=true;\r\n\t\tvoters[user].votesRemaining = maxVoteCount;\r\n\t}\r\n\r\n\tfunction vote(string memory _contestantId) public validState(PHASE.voting){\r\n        require(voters[msg.sender].isRegistered);\r\n\t\trequire(voters[msg.sender].votesRemaining > 0);\r\n\t\trequire(!voters[msg.sender].votedFor[_contestantId]);\r\n\r\n        Contestant storage contestant = contestants[_contestantId];\r\n\t\trequire(bytes(contestant.name).length > 0); // check if the contestant exists\r\n\t\tcontestant.voteCount++;\r\n\r\n\t\tvoters[msg.sender].hasVoted=true;\r\n\t\tvoters[msg.sender].votesRemaining--;\r\n\t\tvoters[msg.sender].votedFor[_contestantId] = true;\r\n\t}\r\n\r\n\tfunction destruct() public onlyAdmin {\r\n\t\trequire(msg.sender == admin);\r\n\t\taddress payable owner = payable(msg.sender);\r\n\t\tselfdestruct(owner);\r\n\t}\r\n}",
  "sourcePath": "D:\\College\\SEMESTER 8\\E-Voting-WebApp\\Blockchain\\contracts\\Election.sol",
  "compiler": {
    "name": "solc",
    "version": "0.8.19+commit.7dd6d404.Emscripten.clang"
  },
  "schemaVersion": "3.4.13",
  "updatedAt": "2023-05-14T23:49:45.093Z",
  "devdoc": {
    "kind": "dev",
    "methods": {},
    "version": 1
  },
  "userdoc": {
    "kind": "user",
    "methods": {},
    "version": 1
  }
}